:0400000092EF09F082
:10030000800780078007800780058005800500053D
:1003100080040004800300030003000380018001C7
:10032000000180000000000000C000D000F000C00C
:1003300000D000F000F000F000F000F000D000E08D
:1003400000F000E000F000F000F000F0FFFF155BAF
:10035000B9D010A08007AB280064E71E41717D0072
:10036000C682554F0C9745B82DFC9780A1046ADFD3
:10037000777C395E79716F76301E763815543F730D
:1003800067506D783E1C2A765B6E006B03710387A5
:1003900003C403160469043F065B4F666D7D077F47
:1003A0006F00206E000E306E2050030E336E6B0E09
:1003B000326E000E396E0B0E386E000E376E000E68
:1003C000366E000E2A6E000E296E000E2C6E3C0E4C
:1003D0002B6E206E000E2D6E2050206E460E316E5C
:1003E0002050000E026E140E016ECDEC0AF025ECCA
:1003F00009F020EE3AF010EE22F0060EDECFE6FF16
:10040000E82EFCD7000E356E000E346E3550800A93
:10041000800F060ED8B4345CD8B013D0000E106E26
:10042000220E0F6E34C011F035C012F080EC06F0D1
:10043000030E026EE80E016ECDEC0AF0344A352A46
:10044000E5D7000E0E6E2E0E0D6E36EC0BF02F5013
:10045000100A100ED8B42E18D8A441EC0BF074EC8E
:1004600007F00009D8A441EC0BF032C013F033C000
:1004700014F0E2EC08F038C007F039C008F0206E44
:10048000000E096E20508EEC04F007C038F008C052
:1004900039F0000E026E140E016ECDEC0AF049D058
:1004A00032C00FF033C010F0F4EC05F050D036C07D
:1004B00004F037C005F00BEC0BF049D038C004F065
:1004C00039C005F08DEC0AF042D02C502B10D8A486
:1004D00029D036C009F037C00AF0000E0C6E0F0E9E
:1004E0000B6EB0EC0AF00001600E09240F6E0001E3
:1004F000000E0A20106E34C011F035C012F080ECEE
:1005000006F00FC034F010C035F0000E2C6E3C0E1B
:100510002B6E35503410D8A41AD0206E460E316E92
:10052000205015D02B06D8A02C0611D041EC0BF092
:100530000ED03150430AD8B4BAD7050AD8B4B0D7D0
:10054000150AD8B4C2D7050AD8B4B8D7EFD72D0446
:10055000D8A408D0000E2A6E640E296E206E000EFC
:100560002D6E0FD03150560AD8A40CD02A50291025
:10057000D8B404D02906D8A02A0604D0206E460E8E
:10058000316E2050000E066E300E056EA8EC03F0A2
:10059000286E2804D8B4C2D07CD736C01BF037C030
:1005A0001CF0206E010E1D6E2050FCEC06F00AD0EF
:1005B00036C01BF037C01CF0206E000E1D6E2050A0
:1005C000FCEC06F01BC036F01CC037F0D890363477
:1005D000206E3734216E8B0E2024F66E030E212000
:1005E000F76E0900F5CF32F00A00F5CF33F0206E38
:1005F000530E316E2050000E356E000E346E49D70A
:1006000032C01BF033C01CF0206E010E1D6E205056
:100610009CEC08F00AD032C01BF033C01CF0206EF6
:10062000000E1D6E20509CEC08F01BC032F01CC068
:1006300033F0206E460E316E0BD038C007F039C053
:1006400008F0206E010E096E20508EEC04F00CD0E4
:1006500020501FD738C007F039C008F0206E000EB8
:10066000096E20508EEC04F007C038F008C039F055
:10067000206E560E316E2050206E010E2D6EE8D782
:10068000206E010E136E205050EC05F013C032F0B6
:1006900014C033F0206E460E316E205038C007F083
:1006A00039C008F0206E010E096E20508EEC04F067
:1006B00007C038F008C039F038C007F039C008F07A
:1006C000206E000E096E20508EEC04F0DED6206EF7
:1006D000000E136E205050EC05F013C032F014C021
:1006E00033F0206E460E316E205038C007F039C00E
:1006F00008F0206E010E096E20508EEC04F007C049
:1007000038F008C039F038C007F039C008F0206E62
:10071000000E096E20508EEC04F0B7D63050010A5E
:10072000D8B4AED7030AD8B438D7060AD8B468D735
:100730000C0AD8B482D7180AD8B48CD7300AD8B4E7
:100740006AD7600AD8B434D7C00AD8B4C0D7A1D603
:100750008150010B086E010E081A05C0D9FF06C0B2
:10076000DAFFDF50010B076E07C001F008C002F08E
:1007700005C003F006C004F0FAEC0AF0096E095057
:10078000D8A4CAD08150200B086E200E081A083A4F
:100790000F0E081605C0D9FF06C0DAFFDF50020BA6
:1007A000076E07C001F008C002F005C003F006C0E4
:1007B00004F0FAEC0AF0096E0950D8A4ADD08050CC
:1007C000010B086E010E081AD8900836D89008362A
:1007D00005C0D9FF06C0DAFFDF50040B076E07C063
:1007E00001F008C002F005C003F006C004F0FAEC06
:1007F0000AF0096E0950D8A48FD08050020B086E01
:10080000020E081AD8900836D890083605C0D9FFCD
:1008100006C0DAFFDF50080B076E07C001F008C002
:1008200002F005C003F006C004F0FAEC0AF0096E0D
:100830000950D8A471D08650010B086E010E081A19
:10084000083AF00E081605C0D9FF06C0DAFFDF50DF
:10085000100B076E07C001F008C002F005C003F0DE
:1008600006C004F0FAEC0AF0096E0950D8A454D07E
:100870008650020B086E020E081A083AF00E08168F
:1008800005C0D9FF06C0DAFFDF50200B076E07C096
:1008900001F008C002F005C003F006C004F0FAEC55
:1008A0000AF0096E0950D8A437D08650040B086EA0
:1008B000040E081A083AF00E081605C0D9FF06C043
:1008C000DAFFDF50400B076E07C001F008C002F0EE
:1008D00005C003F006C004F0FAEC0AF0096E0950F6
:1008E000D8A41AD08650080B086E080E081A083AC9
:1008F000F00E081605C0D9FF06C0DAFFDF50800BE6
:10090000076E07C001F008C002F005C003F006C082
:1009100004F0FAEC0AF0096E09501200B4D0120E7D
:10092000075C000E0858D8B0B6D0074A082A000164
:100930007F0E0001C017F80E0001C1170001FF0E65
:100940000001D6170F0E0001D717D89007340A6E92
:1009500008340B6E000E0A24F66E030E0B20F76EA1
:100960000900F5CF0CF00900F5CF0DF00C50000197
:100970000001C0130D5000010001C113D8900734CD
:100980000A6E08340B6E260E0A26000E0B22000E8D
:100990000A24F66E030E0B20F76E0900F5CF0CF05B
:1009A0000900F5CF0DF00C5000010001D6130D50D9
:1009B00000010001D7130A6E030E026E0A5052ECBA
:1009C00008F00A6E0E0E026E0A5052EC08F063D068
:1009D00008500710D8B45FD00706D8A00806000159
:1009E0007F0E0001C017F80E0001C1170001FF0EB5
:1009F0000001D6170F0E0001D717D89007340A6EE2
:100A000008340B6E000E0A24F66E030E0B20F76EF0
:100A10000900F5CF0CF00900F5CF0DF00C500001E6
:100A20000001C0130D5000010001C113D89007341C
:100A30000A6E08340B6E260E0A26000E0B22000EDC
:100A40000A24F66E030E0B20F76E0900F5CF0CF0AA
:100A50000900F5CF0DF00C5000010001D6130D5028
:100A600000010001D7130A6E030E026E0A5052EC09
:100A700008F00A6E0E0E026E0A5052EC08F00BD00F
:100A800041EC0BF008D00950000AD8B4A1D7010AF4
:100A9000D8B445D7F5D707C007F008C008F0120052
:100AA00000010001BC83156E010E026E155052EC60
:100AB00008F000010001BF93156E020E026E155082
:100AC00052EC08F000010001C19D156E030E026E8C
:100AD000155052EC08F000010001C18D0001000129
:100AE000C18B1304D8A404D000010001C18F03D02E
:100AF00000010001C19F0001FF0E0001C017E70EB9
:100B00000001C1170001800E0001C017FF0E000197
:100B1000C11700010001C08D00010001CE87156ED4
:100B20000A0E026E155052EC08F0156E030E026E9E
:100B3000155052EC08F0000E026E020E016ECDEC64
:100B40000AF0000E0E6E170E0D6E43EC0AF000094F
:100B5000D8B405D0000E146E010E136E44D0185098
:100B60001710D8B4E8D7156E130E026E1550000E8C
:100B7000046E190E036EE5EC07F0166E1604D8B479
:100B800041EC0BF0070E156ED8901A321932152E63
:100B9000FBD7FF0E1916010E1A160001000E0001F8
:100BA000BE17FE0E0001BF17195000010001BE1351
:100BB0001A5000010001BF13156E020E026E15508F
:100BC00052EC08F0B20E1926020E1A2200010001A2
:100BD000BC93156E010E026E155052EC08F019C050
:100BE00013F01AC014F01200E80E0F5C030E105838
:100BF000D8A00FD0116E180E016E1150126E010E9A
:100C0000026E125061EC09F0E80E0F5E030E105AEE
:100C10000AD0116E180E016E1150126E000E026E87
:100C2000125061EC09F00FC001F010C002F0000E8C
:100C3000046E640E036EEDEC09F00150136E000EAD
:100C4000046E640E036E0FC001F010C002F0EDECF4
:100C500009F001C009F002C00AF0000E0C6E640E2B
:100C60000B6EB0EC0AF009500F5E0A50105A0FC01C
:100C700001F010C002F0000E046E0A0E036EEDECDF
:100C800009F00150146E000E046E0A0E036E0FC0C0
:100C900001F010C002F0EDEC09F001C009F002C053
:100CA0000AF0000E0C6E0A0E0B6EB0EC0AF0095042
:100CB0000F5E0A50105A0FC015F013C001F0116EEC
:100CC000010E026E115069EC0AF014C001F0116EB1
:100CD000020E026E115069EC0AF0116E170E016ED1
:100CE0001150126E010E026E125061EC09F015C027
:100CF00001F0116E030E026E115069EC0AF0120041
:100D000040C018F041C019F042C01AF0136E000E36
:100D10001B6E1350136E180E016E1350146E000EDE
:100D2000026E145061EC09F0000E1D6E000E1C6E78
:100D30003DD011C013F012C014F01C5013261D50EA
:100D4000142213500F24D96E14501020DA6EDF5085
:100D5000D8A405D0136E010E1B6E135025D011C000
:100D600013F012C014F01C5013261D5014221350FF
:100D70000F24D96E14501020DA6EDF50156EBF0E9E
:100D80001524166E176AFF0E1722700E1624F66EC3
:100D9000030E1720F76E180E1C24D96E000E1D20AE
:100DA000DA6E0800F5CFDFFF1C4A1D2A1B04D8B4F9
:100DB00008D01D50800A800F030ED8B41C5CD8A048
:100DC000B8D718C062FF19C061FF1AC060FF115088
:100DD0000F24D96E12501020DA6EDF50D8A405D03F
:100DE000000E106E000E0F6E06D0114A122A11C0AE
:100DF0000FF012C010F012006AD0050E1B5C000E3E
:100E00001C58D8B016D01B4A1C2AD8901B341E6E12
:100E10001C341F6E8B0E1E24F66E030E1F20F76E01
:100E20000900F5CF13F00A00F5CF14F0E2EC08F05A
:100E300056D0000E1C6E000E1B6ED8901B341E6E1A
:100E40001C341F6E8B0E1E24F66E030E1F20F76ED1
:100E50000900F5CF13F00A00F5CF14F0E2EC08F02A
:100E60003ED01C501B10D8B417D01B06D8A01C06AF
:100E7000D8901B341E6E1C341F6E8B0E1E24F66E13
:100E8000030E1F20F76E0900F5CF13F00A00F5CF0F
:100E900014F0E2EC08F023D0000E1C6E050E1B6E61
:100EA000D8901B341E6E1C341F6E8B0E1E24F66EE3
:100EB000030E1F20F76E0900F5CF13F00A00F5CFDF
:100EC00014F0E2EC08F00BD041EC0BF008D01D5010
:100ED000000AD8B4C6D7010AD8B48FD7F5D71BC03B
:100EE0001BF01CC01CF01200136E000E176E135086
:100EF0001DD01750020D4C0EF324F66E030EF42095
:100F0000F76E0900F5CF13F00900F5CF14F0175074
:100F1000020D0001BA0EF324D96E0001000EF42078
:100F2000DA6E13C0DEFF14C0DDFF172A110E17643E
:100F3000E0D7BAC015F0BBC016F000010001BA91AD
:100F4000136E000E026E135052EC08F00009D8A484
:100F500021D0136E010E176E135008D017C002F087
:100F600052EC08F00009D8A415D0172A110E176406
:100F7000F5D7010E151000010001BA6F16500001DF
:100F8000BB6F136E000E026E135052EC08F0000996
:100F9000D8B402D0010E18D0000E026E140E016EED
:100FA000CDEC0AF006D0000E026E020E016ECDEC02
:100FB0000AF0000E0E6E150E0D6E43EC0AF0165080
:100FC0001510D8B4F0D7000E1200C580C5B0FED7FA
:100FD00048EC0BF0056E200E016E055018EC0AF07F
:100FE0000009D8B402D0010E5CD048EC0BF002C06E
:100FF00001F018EC0AF048EC0BF0C582C5B2FED740
:1010000048EC0BF0056E210E016E055018EC0AF04D
:1010100048EC0BF01AEC0BF00B6E48EC0BF0C59A99
:10102000C588C5B8FED748EC0BF01AEC0BF00C6E77
:1010300048EC0BF0C58AC588C5B8FED748EC0BF064
:10104000C584C5B4FED748EC0BF00B50056E066A9C
:1010500003C0D9FF04C0DAFF05C0DEFF06C0DDFF14
:1010600003C0D9FF04C0DAFFDE50DD6EDF6A03C0C3
:10107000D9FF04C0DAFFDECF05F0DDCF06F00C505B
:10108000076E086A05500710096E065008100A6EB0
:1010900003C0D9FF04C0DAFF09C0DEFF0AC0DDFFCC
:1010A000000E12000250020D0001BA0EF324D96E98
:1010B0000001000EF420DA6EDECF03F0DDCF04F085
:1010C00004C003F0046A0350056E0250020D0001D3
:1010D000BA0EF324D96E0001000EF420DA6EDF5050
:1010E000066EC580C5B0FED748EC0BF0036E200E2F
:1010F000016E035018EC0AF00009D8B402D0010EBA
:101100001AD048EC0BF002C001F018EC0AF048ECE1
:101110000BF005C001F018EC0AF048EC0BF006C02B
:1011200001F018EC0AF048EC0BF0C584C5B4FED70A
:1011300048EC0BF0000E120038D0380E1B5C040E89
:101140001C58D8B009D01B4A1C2A1BC013F01CC065
:1011500014F0E2EC08F031D0030E1C6E6B0E1B6E27
:101160001BC013F01CC014F0E2EC08F026D06C0E8B
:101170001B5C030E1C58D8A00AD01B06D8A01C0666
:101180001BC013F01CC014F0E2EC08F016D0040EE3
:101190001C6E380E1B6E1BC013F01CC014F0E2EC6A
:1011A00008F00BD041EC0BF008D01D50000AD8B469
:1011B000DED7010AD8B4C1D7F5D71BC01BF01CC0BD
:1011C0001CF012004E0E1324176EFD0E1420186E24
:1011D00000010001BF93156E020E026E155052EC15
:1011E00008F00009D8A430D00001000E0001BE179D
:1011F000FE0E0001BF17000E1710156E020E18101C
:10120000166E155000010001BE13165000010001BA
:10121000BF13156E020E026E155052EC08F0000955
:10122000D8A412D0000E026E020E016ECDEC0AF0B0
:10123000000E0E6E190E0D6E43EC0AF00009D8A4D4
:1012400003D01A501910ECD71200720ED36E0F0192
:101250000F015A690F010F015B690F010F015C69F2
:10126000070E0F010F015D6F880E0F010F01596FFF
:10127000360E0F010F01586F3F0EC16E030E926EB6
:10128000210E936E180E946EEF0E986E000E806E07
:10129000000E816E000E826EF294080ED56E000E66
:1012A000D76E000ED66ED58E036E080E016E0350FB
:1012B000046E800E026E045028EC0BF03F0EC86ED8
:1012C00012001A0E016401D02CD00138E8461F0B21
:1012D000036E046A600E0324056E0F0E0420066E72
:1012E00001C003F0070E0316010E046E032A02D09C
:1012F000D8900436032EFCD70450076E0250D8B4A1
:1013000007D005C0D9FF06C0DAFF0750DF1209D0A9
:101310000750FF0A036E05C0D9FF06C0DAFF03506D
:10132000DF16120000EEBAF0240EEE6AE806FDE1C8
:10133000426A416A406A800EF66E130EF76E000E26
:10134000F86E00EE60F010EE5AF00900F5CFEEFFF7
:10135000E550E150FAE19C0EF66E160EF76E000EA7
:10136000F86E00EE3AF010EE06F00900F5CFEEFF51
:10137000E550E150FAE1000EF86E0001D1EF01F006
:10138000554E4B4E4F574E000000000000000042EB
:1013900042435B54574F00000000000000004242EF
:1013A000435B54485245450000000000004541475A
:1013B0004C45000000000000000000004242435B7A
:1013C0004F4E450000000000000000554E4B4E4FB0
:1013D000574E0000000000000000000E076E000ED7
:1013E000066E04500310D8B41ED0056E010E086EB0
:1013F000055004D0D89003360436082A04AEFAD734
:10140000D890063607360350015C04500258D8A025
:1014100005D00350015E0450025A0680D890043271
:101420000332082EEDD706C001F007C002F012000B
:1014300001C0C9FFC6AE02D0FF0E24D0C6500F0BAC
:10144000080AD8B40CD0C6500F0B0B0AD8B407D07A
:10145000C6889EA6FED7C7A4C7B013D010D0C6506A
:101460000F0B080AD8B405D0C6500F0B0B0AD8A42E
:1014700009D0C7B0FED748EC0BF0C5AC02D0FE0EC9
:1014800001D0000E12000F6E130E026E0F50000EF0
:10149000046E110E036EE5EC07F00009D8B402D01B
:1014A000010E16D0200E1116000E12161250111039
:1014B000D8B402D0010E01D0000E0F6E106A0DC01C
:1014C000D9FF0EC0DAFF0FC0DEFF10C0DDFF000E37
:1014D00012000150010D970EF324F66E030EF42056
:1014E000F76E0800F5CF01F00CD001C062FF14D0F8
:1014F00001C061FF11D001C060FF0ED041EC0BF0C4
:101500000BD00250010AD8B4F0D7030AD8B4F0D7F0
:10151000010AD8B4F0D7F2D71200066E000E016EA1
:101520000650E6EC0AF00A0E045C000E0558D8A03E
:101530000ED0066E010E016E0650076E020E026E90
:10154000075069EC0AF00A0E045E000E055A04C04A
:1015500001F0066E030E026E065069EC0AF01200EE
:1015600009500B02F3CF0DF0F4CF0EF009500C022E
:10157000F3CFF4FFF36AF3500D26F4500E220A5015
:101580000B02F3CFF4FFF36AF3500D26F4500E2252
:101590000DC009F00EC00AF01200000E046E000E1D
:1015A000036E0FD0000E046E640E036E03D00306AC
:1015B000D8A0040604500310D8A4F9D70106D8A077
:1015C000020602500110D8B41200ECD70104D8A4CE
:1015D00002D0036804D0026E000E036E025003C0F6
:1015E00060FF03C061FF03C062FF070E031603C064
:1015F00063FF12000150026202D0000E0BD003C044
:10160000D9FF04C0DAFF02C0DFFF026602D0020E7B
:1016100001D0010E1200066E000E016E0650E6ECBF
:101620000AF004C001F0066E010E026E065069EC6D
:101630000AF01200C6500F0B080AD8B404D0C650E6
:101640000F0B0B0AD8B4C586C7A0FED7C95012002D
:101650003F0EC716000EC66E000EC56E0150C612B4
:101660000250C71294869488C68A12000F6E1C0E10
:10167000026E0F500DC003F00EC004F0E5EC07F051
:101680001200790E626E310E616E310E606EFFD700
:10169000C5501F0BD8B4C7B4FBD7120048454C4CFB
:0216A0004F00F9
:020000040020DA
:08000000FFFFFFFFFFFFFFFF00
:020000040030CA
:0A000000FF09191EFF8180FF01FFB8
:00000001FF
